:020000040000fa
:080000000001040000000000f3
:020000040000fa
:040008008a04000066
:020000040000fa
:04000c00cc04000020
:020000040000fa
:040010000c050000db
:020000040000fa
:04001400aa0400003a
:020000040000fa
:04001800ec040000f4
:020000040000fa
:04001c004c0500008f
:020000040000fa
:040020002c050000ab
:020000040000fa
:040024004c05000087
:020000040000fa
:040028004c05000083
:020000040000fa
:04002c004c0500007f
:020000040000fa
:040030004c0500007b
:020000040000fa
:040034004c05000077
:020000040000fa
:040038004c05000073
:020000040000fa
:04003c004c0500006f
:020000040000fa
:040040004c0500006b
:020000040000fa
:040044004c05000067
:020000040000fa
:040048004c05000063
:020000040000fa
:04004c004c0500005f
:020000040000fa
:040050004c0500005b
:020000040000fa
:040054004c05000057
:020000040000fa
:040058004c05000053
:020000040000fa
:04005c004c0500004f
:020000040000fa
:040060004c0500004b
:020000040000fa
:040064004c05000047
:020000040000fa
:040068004c05000043
:020000040000fa
:04006c00040200008a
:020000040000fa
:040070004c0500003b
:020000040000fa
:040074004c05000037
:020000040000fa
:040078004c05000033
:020000040000fa
:04007c004c0500002f
:020000040000fa
:040080004c0500002b
:020000040000fa
:040084004c05000027
:020000040000fa
:040088004c05000023
:020000040000fa
:04008c004c0500001f
:020000040000fa
:040090004c0500001b
:020000040000fa
:040094004c05000017
:020000040000fa
:040098004c05000013
:020000040000fa
:04009c004c0500000f
:020000040000fa
:0400a0004c0500000b
:020000040000fa
:0400a4004c05000007
:020000040000fa
:0400a8004c05000003
:020000040000fa
:0400ac004c050000ff
:020000040000fa
:0400b0004c050000fb
:020000040000fa
:0400b4004c050000f7
:020000040000fa
:0400b8004c050000f3
:020000040000fa
:0400bc004c050000ef
:020000040000fa
:0400c0004c050000eb
:020000040000fa
:0400c4004c050000e7
:020000040000fa
:0400c8004c050000e3
:020000040000fa
:0400cc004c050000df
:020000040000fa
:0400d0004c050000db
:020000040000fa
:0400d4004c050000d7
:020000040000fa
:0400d8004c050000d3
:020000040000fa
:0400dc004c050000cf
:020000040000fa
:0400e0004c050000cb
:020000040000fa
:0400e4004c050000c7
:020000040000fa
:0400e8004c050000c3
:020000040000fa
:0400ec004c050000bf
:020000040000fa
:0400f0004c050000bb
:020000040000fa
:0400f4004c050000b7
:020000040000fa
:0400f8004c050000b3
:020000040000fa
:0400fc004c050000af
:020000040000fa
:040100004c050000aa
:020000040000fa
:040104004c050000a6
:020000040000fa
:040108004c050000a2
:020000040000fa
:04010c004c0500009e
:020000040000fa
:040110004c0500009a
:020000040000fa
:040114004c05000096
:020000040000fa
:040118004c05000092
:020000040000fa
:04011c004c0500008e
:020000040000fa
:040120004c0500008a
:020000040000fa
:040124004c05000086
:020000040000fa
:040128004c05000082
:020000040000fa
:04012c004c0500007e
:020000040000fa
:040130004c0500007a
:020000040000fa
:040134004c05000076
:020000040000fa
:040138004c05000072
:020000040000fa
:04013c004c0500006e
:020000040000fa
:040140004c0500006a
:020000040000fa
:040144004c05000066
:020000040000fa
:040148004c05000062
:020000040000fa
:04014c004c0500005e
:020000040000fa
:040150004c0500005a
:020000040000fa
:040154004c05000056
:020000040000fa
:040158004c05000052
:020000040000fa
:04015c004c0500004e
:020000040000fa
:040160004c0500004a
:020000040000fa
:040164004c05000046
:020000040000fa
:040168004c05000042
:020000040000fa
:04016c004c0500003e
:020000040000fa
:040170004c0500003a
:020000040000fa
:040174004c05000036
:020000040000fa
:040178004c05000032
:020000040000fa
:04017c004c0500002e
:020000040000fa
:040180004c0500002a
:020000040000fa
:040184004c05000026
:020000040000fa
:040188004c05000022
:020000040000fa
:04018c004c0500001e
:020000040000fa
:040190004c0500001a
:020000040000fa
:040194004c05000016
:020000040000fa
:040198004c05000012
:020000040000fa
:04019c004c0500000e
:020000040000fa
:0401a0004c0500000a
:020000040000fa
:0401a4004c05000006
:020000040000fa
:0401a8004c05000002
:020000040000fa
:0401ac004c050000fe
:020000040000fa
:0401b0004c050000fa
:020000040000fa
:0401b4004c050000f6
:020000040000fa
:0401b8004c050000f2
:020000040000fa
:0401bc004c050000ee
:020000040000fa
:0401c0004c050000ea
:020000040000fa
:0401c4004c050000e6
:020000040000fa
:0401c8004c050000e2
:020000040000fa
:0401cc004c050000de
:020000040000fa
:0401d0004c050000da
:020000040000fa
:0401d4004c050000d6
:020000040000fa
:0401d8004c050000d2
:020000040000fa
:0401dc004c050000ce
:020000040000fa
:0401e0004c050000ca
:020000040000fa
:0401e4004c050000c6
:020000040000fa
:0401e8004c050000c2
:020000040000fa
:0401ec004c050000be
:020000040000fa
:0401f0004c050000ba
:020000040000fa
:0401f4004c050000b6
:020000040000fa
:0401f8004c050000b2
:020000040000fa
:0401fc004c050000ae
:020000040000fa
:10020000cf8420000eff27000e01880000000000b0
:10021000000020000000e000020032000001200089
:1002200020028800140007001d0207000000e00003
:1002300003003a0060852000010020000200370022
:100240000000200001002000810f7000010032003a
:1002500014000700000020000000e000020032004f
:100260000000020000000000ca08020000000000b8
:100270000040da000000fe004440a90020002000f9
:100280000000e00003003200100020009001880010
:100290004440a800000006008a1f78008b1f7800e9
:1002a00000000600a1028800800478000000eb0036
:1002b0001f003700e284440054a0b4009905ba003e
:1002c000e284440054a0b4009906ba00e2844400d9
:1002d00054a0b4000006eb00476fde00fd07b2003b
:1002e000ae018800636ce10003003a00eaff0700fa
:1002f0000000eb000e003700606ce10008003a00df
:10030000004deb000a05e800020039003420ec0043
:100310000af0a0008b05e900f9ff3e000400370059
:100320006168e100010032000086eb000b0007006d
:1003300019c7ba001905ba000e04e00003003a001c
:100340000a00e000dbff3a0000000600fe07b200f2
:10035000ae0288008a047800f5ff37000cd0a300b5
:10036000e20f4d001c00390089027800354dba00bb
:100370000a05e800020039003420ec000af0a00071
:100380008b05e9000f003200254dba000a05e80090
:10039000020039003420ec000af0a0008b05e900cf
:1003a000080032000c00e0000600320015cdba0053
:1003b0000a05e800020039003420ec000af0a00031
:1003c0008b05e9008984e80054a0b4000b00e0002c
:1003d000e2ff3a00000006009902ba00055d7800cd
:1003e0008b05e900f7ff3200c82ade00055d7800c2
:1003f0008b05e900f3ff32000c00e000f1ff320052
:1004000019ddba00eeff37003600f800809fbe000d
:10041000829fbe00849fbe00869fbe000000fa003f
:100420008a20a900f12480000008200000806000dc
:100430000000e000090032009ee4a9000828ef0057
:100440007040800064004000100078008000eb00e5
:10045000010878000e28ef00270137004040800097
:100460008000eb00b200200003002000820f50004b
:10047000838f580014013e00006001000b0037001c
:100480004700370087003700b00037000b01370006
:10049000de003700f100370008013700f3003700b5
:1004a000090137004200370060003700008020005b
:1004b0006400400010007800620060000000e0006e
:1004c0000c013a00008020000080e8001000780055
:1004d00070408800008020000080e8001000780054
:1004e000104078000ae8b700008020000080e80093
:1004f000100078000080e80010007800604088005c
:10050000008020000080e80010007800e600400035
:10051000008020000080e8000108780000802000b2
:100520000080e8009000780000842000808f500058
:1005300004003a0000802000a18320000080e80031
:100540000108780000802000e4004000910078005d
:100550000100a10064004000010878000080200034
:100560000080e800900078000080200010007800f3
:10057000808f500006003a0000802000e400400018
:10058000910078000110a00064004000010878008c
:100590009a04a8002000200040408800d6003700c0
:1005a0009a24a8002000200040408800d200370094
:1005b000f124800000002800008060000000e000be
:1005c0000a003200008020006600400010407800e1
:1005d0008040e8000080200066004000014878006c
:1005e0004000200068010700c30037008040800001
:1005f0008000d100f00f200000806000b02488004f
:100600008040800061006000004078000004e0004d
:1006100003003200b000200040408800b6003700e0
:100620003000200040408800b3003700f1248000f3
:1006300000002800008060000000e0000a00320096
:100640000080200066004000104078008040e800f4
:100650000080200066004000014878004000200033
:1006600049010700a40037009a24a80080408000b8
:100670004800de00e6006000000f2000010070006e
:1006800080408800804080000000a00080408800fa
:1006900010c0b30012e8b7002000200040408800de
:1006a0009500370012c8bf00e14f50000c00320027
:1006b000604080001000780080408800604080002a
:1006c0006400400010007800a04088006040800076
:1006d0000080e8001040780016e8b70001003700fd
:1006e0001268ef0081408000f00f2000808f5000e2
:1006f00009003600804080004800de00e60060000f
:10070000000f200001007000b0248800a00020002d
:10071000404088007800370080408000b024880086
:100720008040800061006000004078000004e0002c
:100730000300320050002000404088006e00370067
:1007400030002000404088006b003700f12480001a
:1007500000002800008060000000e0000b00320074
:100760000080200066004000104078008040e800d3
:100770000080200066004000014878009fe4a90046
:1007800050002000000107005b00370016c8bf00c2
:100790008080fb008100e900cf08de008140780006
:1007a0000040e90016e8b7000104e0001000320044
:1007b0006040800066004000604088000ac8bf00ba
:1007c0000040e9000ae8b7000ac8bf000004e000e2
:1007d00003003a0020002000eb000700460037002d
:1007e0009a24a800200020004040880042003700e2
:1007f000a0408000904078008180fb00b1248800f8
:100800000000e800a04088003b003700f124800091
:1008100000002800008060000000e0000b003200b3
:100820000080200066004000104078008040e80012
:100830000080200066004000014878004000200051
:10084000d10007009fe4a9002b0037009a64a8009c
:1008500080002000404088002700370080002000f2
:10086000404088009a64a80023003700a040800020
:10087000a124800081407800014878000000e80051
:10088000a040880016c8bf000040e90016e8b70085
:1008900016c8bf000004e000040032009aa4a900ba
:1008a0006000200040408800020037009aa4a800a1
:1008b000a40007009a84a8000f0037002000200041
:1008c000b10007000c0037000080200066004000e7
:1008d000104078008040e800008020006600400062
:1008e0000148780060002000a70007000000000019
:1008f00001003700000000000080fa004f03be0036
:100900004f02be004f01be004f00be003600f9008e
:10091000004006003600f800809fbe00829fbe00a7
:10092000849fbe00869fbe000000fa008020a900c0
:100930000000eb00f80107000080fa004f03be0042
:100940004f02be004f01be004f00be003600f9004e
:10095000004006003600f800809fbe00829fbe0067
:10096000849fbe00869fbe000000fa00ef010700d2
:100970008040a90010002000e70107000080fa0075
:100980004f03be004f02be004f01be004f00be002d
:100990003600f900004006003600f800809fbe00d7
:1009a000829fbe00849fbe00869fbe000000fa00aa
:1009b0008060a90020002000d70107000080fa0015
:1009c0004f03be004f02be004f01be004f00be00ed
:1009d0003600f900004006003600f800809fbe0097
:1009e000829fbe00849fbe00869fbe000000fa006a
:1009f0008080a90030002000c70107000080fa00b5
:100a00004f03be004f02be004f01be004f00be00ac
:100a10003600f900004006003600f800809fbe0056
:100a2000829fbe00849fbe00869fbe000000fa0029
:100a30008600a90070002000b70107000080fa00be
:100a40004f03be004f02be004f01be004f00be006c
:100a50003600f900004006003600f800809fbe0016
:100a6000829fbe00849fbe00869fbe000000fa00e9
:100a700085e0a90080002000a70107000080fa009f
:100a80004f03be004f02be004f01be004f00be002c
:100a90003600f900004006000040da000000fe00c9
:040aa000000005004d
:020000040000fa
:100aa4000000fa0000802000a18320000080e800fc
:100ab4000108780000802000a1832000010878004c
:100ac40000802000e4004000910078000110a000a4
:100ad400640040000108780000802000e400400029
:100ae400910078000100a100640040000108780032
:100af400008020008040eb00660040000148780040
:100b040020012000c024880000002800d024880090
:100b14009e24ef008a20a9009a20a8000080fa00f1
:100b2400000006000200fa00008020006600400079
:100b3400104f78001e4078000080fa000000060084
:100b44000000fa00604080006600400060408800b9
:100b54000ac8bf000040e9000ae8b7000ac8bf009d
:100b64000004e00003003a004000200040408800f8
:100b74000200370010002000404088000080fa0086
:100b8400000006000200fa00000f78009a44a80052
:100b94007040800064004000100078000000e00015
:100ba40004003200704080006400400010007800af
:100bb4001e0878000828ef000080fa0000000600f4
:100bc4000800fa00000f78000e80e8000148780061
:100bd40064004700020878006600470003087800b4
:100be4000080200064004000100078006100600074
:100bf4000000e0000d003a00640047009001780016
:100c04000e80e800104178009e0078006084200087
:100c140093000700660047001001780061842000fb
:100c240010c0b30028000700040037006600470026
:100c3400100078008000eb00010878000080fa00c2
:100c4400000006000800fa00000f78000e80e8009b
:100c540001487800640047000208780066004700f5
:100c64000308780000802000640040001000780031
:100c7400610060000000e0000d003a0064004700dd
:100c8400900178000e80e800104178009e00780002
:100c9400008420005400070066004700100178001b
:100ca4000184200010c0b3000700070004003700cf
:100cb40066004700100078008000eb00010878000f
:100cc4000080fa00000006000600fa00004f7800d9
:100cd4000e80e800010878006400470002087800ec
:100ce4000080200064004000100078006100600073
:100cf4000000e00036003a0064004700100078006d
:100d04001100200001087800008020001000780005
:100d14000080e8008e80e800110878000080200040
:100d2400100078001e487800008020001000780031
:100d340064004000e40047001108780000802000af
:100d440010007800e60040000080200001087800d0
:100d5400008020009000780000842000808f5000e4
:100d640003003a0000802000a183200001087800dd
:100d740000802000e4004000910078000110a100f0
:100d84006400400001087800008020000080e80032
:100d9400900078000080200010007800808f5000c0
:100da40006003a0000802000e40040009100780032
:100db4000100a00064004000010878004040800069
:100dc4000000e00006003a008a20a8000400370072
:100dd40064004700100078008000eb0001087800f0
:100de4000080fa00000006000800fa00000f7800f6
:100df4000e80e8000108780064004700024878008b
:100e04006600470003087800660047001000780079
:100e140000004000800078001e007800010878007f
:100e24001e00780010007800800078000100a00007
:100e34001e007800010878001e0078000080e80099
:100e4400e4004700114878001e0078006400400068
:100e54008e80e800110878000080fa000000060087
:100e64000800fa00000f78000e80e80001087800fe
:100e740064004700024878006600470003087800d1
:100e840066004700100078000000400080007800f1
:100e94001e007800010878001e0078000080e80039
:100ea400e4004700114878001e0078006400400008
:100eb4008e80e800110878000080fa000000060027
:100ec4000000fa0000802000640040001000780058
:100ed4006200600000f0a7000000ea000000ea00e1
:100ee4004f00de00004078000080fa000000060099
:100ef4000000fa0000802000640040001000780028
:100f04006100600000f0a7000000ea000000ea00b1
:100f14004f00de00004078000080fa000000060068
:100f24000000fa007826ef008c26ef00a026ef00e0
:100f3400b426ef00c826ef00dc26ef00f026ef0011
:100f44000080eb00a03388000000270040348800b4
:100f5400f0ff2000e0348800f00f20008035880086
:100f6400b017200020368800c03c2000c03688001e
:100f740010002000603788008626ef009a26ef00d4
:100f8400ae26ef00c226ef00d626ef00ea26ef00d9
:100f9400fe26ef008426ef009826ef00ac26ef0033
:100fa400c026ef00d426ef00e826ef00fc26ef0071
:100fb4008626ef009a26ef00ae26ef00c226ef0049
:100fc400d626ef00ea26ef00fe26ef008426ef0087
:100fd4009826ef00ac26ef00c026ef00d426ef00e1
:100fe400e826ef00fc26ef007a26ef008e26ef00bd
:100ff400a226ef00b626ef00ca26ef00de26ef0099
:10100400f226ef00c0ff2f00e033880000cc200060
:101014002035880080012000c0358800003c200075
:10102400003788000080fa00000006000000fa0083
:1010340000002300100888000621ef006821ef005b
:101044006a21ef000c21ef000e21ef007821ef0060
:101054007c21ef007e21ef008021ef008221ef0050
:101064008421ef008621ef000001eb0080072000bf
:10107400a1092000131020008049780081497800dc
:10108400824978000001eb00600420007105200013
:101094000310200080497800814978008249780053
:0810a4000080fa0000000600c4
:020000040000fa
:1010ac003a08000012000000800000000008000058
:1010bc0018000000800000001a080000200000004a
:1010cc0080000000180800000200000082000000f0
:0810dc00ffff0000000000000e
:020000040000fa
:1010e4000000fa0081058000f0f82f000080600005
:1010f4000040a000800588008105800080ff2f004b
:10110400008060000000a000800588000080fa00d4
:10111400000006000200fa00000f78009e0078002c
:10112400c1408800ffff37000000fa00a0812000c2
:101134008007780020832000000188000080fa00e6
:10114400000006000e00fa0080cab300004f7800c9
:101154006c00470080017800c2032000c1c0b300c6
:101164000e00780096fe07000000eb000080fa00f5
:10117400000006000000fa0069ff0700abff07004b
:10118400d7ff070046fe07000080fa0000000600b3
:0c1194000000fa00f7ff0700ffff370023
:020000040000fa
:02000004000af0
:04be0000ffffff0041
:020000040000fa
:02000004000af0
:04be2000ffffff0021
:020000040000fa
:02000004000af0
:04be300078ffff0098
:020000040000fa
:02000004000af0
:04be3800b7ffff0051
:020000040000fa
:02000004000af0
:04be40009fffff0061
:020000040000fa
:02000004000af0
:04be4800ffffff00f9
:020000040000fa
:02000004000af0
:04be5000dfffff0011
:020000040000fa
:02000004000af0
:04be58000000ff00e7
:020000040000fa
:02000004000af0
:04be60000000ff00df
:020000040000fa
:02000004000af0
:04be68000000ff00d7
:020000040000fa
:02000004000af0
:04be70000000ff00cf
:020000040000fa
:02000004000af0
:04be7800ffffff00c9
:020000040000fa
:02000004000af0
:04be8000ffffff00c1
:020000040000fa
:020000040100f9
:04300000ffffff00cf
:00000001FF
